:020000040800F2
:100000000007002035020008E3120008CD110008A7
:10001000E11200082B04000801170008000000008E
:10002000000000000000000000000000E7120008CF
:100030002D04000800000000E5120008E912000885
:100040004F0200084F0200084F0200084F0200084C
:100050004F0200084F0200084F0200084F0200083C
:100060004F0200084F0200084F0200084F0200082C
:100070004F0200084F0200084F0200084F0200081C
:100080004F0200084F0200084F0200080000000065
:100090000000000000000000000000004F02000807
:1000A0004F0200084F0200084F0200084F020008EC
:1000B0004F0200084F0200084F0200084F020008DC
:1000C0004F0200084F0200084F0200084F020008CC
:1000D0004F0200084F0200084F0200080000000015
:1000E0004F0200084F0200084F0200080000000005
:1000F0000000000000000000000000004F020008A7
:10010000000000004F0200084F0200084F020008E4
:1001100000000000000000000000000000000000DF
:100120004F0200084F0200084F0200084F0200086B
:100130004F02000800000000000000000000000066
:100140000000000000000000000000004F02000856
:100150004F0200084F0200084F0200084F0200083B
:100160004F0200084F0200080000000000000000DD
:10017000000000000000000000000000000000007F
:10018000000000004F020008000000000000000016
:100190004F02000800F002F800F03CF80AA090E8D6
:1001A000000C82448344AAF10107DA4501D100F032
:1001B00031F8AFF2090EBAE80F0013F0010F18BFC3
:1001C000FB1A43F001031847F81500001816000049
:1001D000103A24BF78C878C1FAD8520724BF30C873
:1001E00030C144BF04680C60704700000023002445
:1001F00000250026103A28BF78C1FBD8520728BF37
:1002000030C148BF0B6070471FB501F0C7FA1FBD72
:1002100010B510BD00F0CFF81146FFF7F5FF01F063
:1002200081FA00F0EDF803B4FFF7F2FF03BC00F031
:10023000F5F800000948804709480047FEE7FEE757
:10024000FEE7FEE7FEE7FEE7FEE7FEE7FEE7FEE786
:1002500004480549054A064B704700008113000811
:100260009501000800010020000700200003002085
:100270000003002053EA020C00F069802DE9F04BE6
:100280004FF00006002B1FBFB3FA83F503FA05F405
:1002900024FA05F65E4012BF1643B2FA82F502FA5E
:1002A00005F4C5F120051EBF22FA05FC44EA0C0442
:1002B000203556EA044C4FEA144418BF641C4FF032
:1002C00000084FF00009904271EB030C39D300296C
:1002D00019BFB1FA81F701FA07F6B0FA80F700FA10
:1002E00007F6C7F120071EBF20FA07FC46EA0C06F6
:1002F0002037B6FBF4FCA7EB0507103F07F01F0BF8
:10030000CBF120060CFA0BFB2CFA06F644BFB346E1
:100310000026202FA4BF5E464FF0000B5BEA060CC0
:1003200008BF4FF0010B19EB0B09ABFB027C48EB4C
:100330000608C01B06FB02CC0BFB03CC71EB0C01C7
:10034000C1E70B46024641464846BDE8F08B13B56F
:100350004FF000004FF00001AFF30080BDE81C40FB
:1003600070474FF0000200B5134694469646203978
:1003700022BFA0E80C50A0E80C50B1F12001BFF45E
:10038000F7AF090728BFA0E80C5048BF0CC05DF8C4
:1003900004EB890028BF40F8042B08BF704748BF12
:1003A00020F8022B11F0804F18BF00F8012B704786
:1003B000704770477047754600F02CF8AE46050050
:1003C0006946534620F00700854618B020B5FFF770
:1003D0003FFFBDE820404FF000064FF000074FF010
:1003E00000084FF0000B21F00701AC46ACE8C00953
:1003F000ACE8C009ACE8C009ACE8C0098D4670475C
:1004000010B50446AFF300802046BDE81040FFF76A
:100410000ABF0000004870479C00002001491820D6
:10042000ABBEFEE7260002007047FEE77047000003
:1004300070B5044600F0FEF80546601C02D0044882
:100440000078044400F0F6F8401BA042FAD370BDD7
:10045000000000202DE9F84FDFF8B8A100220124A8
:1004600003254FF00F090AF1040BAAF1040E00BF97
:100470000B6804FA02F63340B34273D10F7907F0E8
:100480000307012F01D0022F16D187684FEA4208D7
:1004900005FA08FC27EA0C07D1F80CC00CFA08FC96
:1004A0004CEA070CC0F808C04768B7430E79C6F39A
:1004B000001696403E4346600E79F643B6070DD0CF
:1004C000C768560005FA06FC27EA0C07D1F808C0F1
:1004D0000CFA06FC4CEA070CC0F80CC00E7906F0CA
:1004E0000306022E10D1D60800EB8608D8F820604B
:1004F00057074FEAD76C09FA0CF7BE430F6907FAA2
:100500000CF73743C8F8207006684FEA420C05FA2A
:100510000CF7BE430F7907F0030707FA0CF73743D0
:1005200007604E6816F4403F6DD03B4E376847F485
:1005300080473760366822F0030706F4804600964D
:10054000364E07EB060CDCF8086897073F0F09FAF0
:1005500007F826EA0806DFF8C880404503D14FF0C7
:1005600000081EE04FE0DFF8BC80404502D14FF0AC
:10057000010816E0DFF8B080404502D14FF00208D4
:100580000FE0DFF8A880404502D14FF0030808E0F3
:10059000DFF89C80404502D14FF0040801E04FF0A5
:1005A000070808FA07F848EA0608CCF80888DAF8D5
:1005B00000605746D1F804C09E435FEACC2C00D5BA
:1005C0001E433E60DBF800605F46D1F804C09E43E6
:1005D0005FEA8C2C00D51E433E60DEF80060774653
:1005E000D1F804C09E435FEA8C3C00D51E433E60B8
:1005F000084F083F3E68D1F804C09E435FEACC3CF8
:1006000000D51E433E60521C102AFFF431AFBDE8F6
:10061000F88F0000083C014044380240003001409F
:10062000000002400004024000080240000C0240AA
:100630000010024001488068704700000000002060
:1006400002488168027811448160704700000020F0
:100650000B4810B5016841F400710160016841F474
:1006600080610160016841F480710160032000F045
:1006700063F8002000F006F800F024F8002010BD18
:10068000003C024070B50D4D04464FF47A71287855
:10069000B1FBF0F00A490968B1FBF0F000F0FEFA96
:1006A00048B9102C07D200222146501E00F024F831
:1006B00000206C6070BD012070BD000000000020B3
:1006C0000C0000200B4882B0016841F480410160B9
:1006D000006800F4804000900648001F016841F067
:1006E00080510160006800F080500090072002B047
:1006F00000F022B844380240F0B40E4B1B680C46A0
:10070000C3F30223C3F10705042D00D90425191DE5
:10071000072901D2002300E0DB1E012606FA05F1BD
:10072000491E214099409E40761E16403143F0BC40
:1007300000F0E7BF0CED00E0064900F00702086892
:100740004FF6FF03184040EA0220034A10430860B6
:10075000704700000CED00E00000FA052DE9F047BD
:100760000E46050065D0DFF81481D8F80000F7B216
:1007700000F00700B04207D288F80070D8F80000F7
:1007800000F00700B04254D128683D4C810712D5D3
:10079000400703D5206840F4E05020602878000727
:1007A00003D5206840F4604020602068A96820F0EC
:1007B000F000084320602878C0072DD030496868D1
:1007C0000839012812D0022813D0032811D0096853
:1007D000890700292DDA216821F0030101432160F6
:1007E000FFF728FF814641F2883A0EE00968890345
:1007F000EFE709688901ECE7FFF71CFFA0EB0901AF
:10080000514502D90320BDE8F0872068696800F0EF
:100810000C00B0EB810FEFD1D8F80010404601F08A
:100820000701B14207D90770006800F00700B04225
:1008300001D00120E7E72878400705D52068E9685E
:1008400020F4E050084320602878000706D520688F
:10085000296920F4604040EAC100206000F038F8C7
:100860002168084AC1F30311515CC8400649086079
:1008700006480068FFF706FF0020C4E7003C02407E
:1008800008380240A61700080C00002004000020D1
:100890000448054900680968044AC1F38221515C93
:1008A000C84070470C00002008380240B617000806
:1008B0000448054900680968044AC1F34231515CA3
:1008C000C84070470C00002008380240B6170008E6
:1008D000154810B5006810F00C02144813D04110F0
:1008E000042A0FD0082A0ED10F4C241F2268236837
:1008F00002F03F025B0207D52068C0F38810A0FB1E
:10090000010106E0084610BD2168C1F38811A1FB72
:1009100000010023FFF7AEFC2168C1F30141491C2F
:100920004900B0FBF1F010BD083802400024F4008B
:100930002DE9F84F04006ED02078DFF84C93C00703
:10094000A9F104054AD009F104000168C1F381014D
:10095000012908D00068C0F3810002280AD1D9F823
:100960000000400206D52868800337D5606800285B
:10097000E1D033E06068B0F5803F10D0B0F5A02F33
:10098000286810D020F480302860286820F4802067
:1009900028606068A8B1FFF74DFE06460DE02868A4
:1009A00040F48030F4E740F480202860F7E700BF8F
:1009B000FFF740FE801B642873D828688003F7D5B2
:1009C0000CE0FFF737FE064605E000BFFFF732FEFA
:1009D000801B6428F0D828688003F7D42078DFF8DB
:1009E000AC8280074FF0000A3ED5A748001D016881
:1009F00011F00C0F08D00068C0F3810002280BD161
:100A0000D9F80000400207D42868800716D5E068AE
:100A1000012800D112E033E1E068B8B10120C8F844
:100A20000000FFF707FE064605E000BFFFF702FEE5
:100A3000801B0228C0D828688007F7D5286821695C
:100A400020F0F80040EAC10028600DE0C8F800A0DE
:100A5000FFF7F0FD064604E0FFF7ECFD801B0228DF
:100A60001FD828688007F7D42078000722D5864F42
:100A700087486169703771B101210160FFF7DAFDC4
:100A8000064604E0FFF7D6FD801B022809D8386827
:100A90008007F7D50EE0C0F800A0FFF7CBFD0646B3
:100AA00005E082E0FFF7C6FD801B02287DD838688C
:100AB0008007F7D42078400768D5DFF8CCB100274D
:100AC0000BF13C0BDBF80000C0000BD4DBF800108E
:100AD00041F08051CBF80010DBF80000012700F056
:100AE000805000906B4E3068C00510D4306840F4E0
:100AF00080703060FFF79EFD009005E0FFF79AFDE3
:100B00000099401A022850D83068C005F6D55E4ECC
:100B1000A0686C3601280FD00528306810D020F06E
:100B200001003060306820F004003060A068B8B187
:100B3000FFF780FD00900FE0306840F00100F4E71F
:100B400040F004003060F7E7FFF774FD0099411AA8
:100B500041F28830814266D830688007F4D50EE0D3
:100B6000FFF768FD009007E0FFF764FD0099411A68
:100B700041F28830814256D830688007F4D42FB1D2
:100B8000DBF8001021F08051CBF80010A069C8B349
:100B90003D49091D0968C1F3810102294AD0022893
:100BA000504607D0C8F8600000E03CE0FFF742FD87
:100BB00004463BE04746C8F86000FFF73BFD0646A9
:100BC00005E000BFFFF736FD801B02282BD8286800
:100BD0008001F7D4D4E907010843A16A2E4A4908E5
:100BE00002EB0141626A41EA8211084394F82C1039
:100BF00040EA0161C9F8001001203866FFF71AFDCC
:100C0000044606E03EE000BFFFF714FD001B02288B
:100C100009D828688001F7D534E000BFFFF70AFD46
:100C2000001B022802D90320BDE8F88F2868800144
:100C3000F4D427E00128F7D0D9F80000E26900F4E5
:100C4000800191421CD1226A00F03F01914217D1EC
:100C500047F6C071626A0140B1EB821F10D1A26AEF
:100C60004FF0FF3300F4403103EB5202B1EB024F7F
:100C700006D194F82C1000F07060B0EB016F01D039
:100C80000120D1E70020CFE70438024000004742AE
:100C9000800E4742007000400000FFFF10B5401E6C
:100CA000B0F1807F01D3012010BD4FF0E0246061DE
:100CB0000F21601700F025FD0020A06107202061B2
:100CC000002010BD70B590F83C20012A2CD00124E2
:100CD00080F83C40022280F83D2003685A689D68F5
:100CE00022F070060A6832435A60104B02689A423A
:100CF0000ED0B2F1804F0BD00D4B9A4208D00D4B65
:100D00009A4205D00C4B9A4202D00C4B9A4204D125
:100D1000496825F080031943916080F83D40002127
:100D200080F83C10084670BD022070BD00000140F4
:100D30000004004000080040000C0040004001405A
:100D400010B5040003D094F83D0010B107E0012075
:100D500010BD002084F83C00204600F01FF802205F
:100D600084F83D00211D206800F012FB012084F86A
:100D7000460084F83E0084F83F0084F8400084F880
:100D8000410084F8420084F8430084F8440084F869
:100D9000450084F83D00002010BD000010B586B06D
:100DA000044614216846FFF7DCFA2068B0F1804F52
:100DB0001ED110480021026842F001020260006862
:100DC00000F0010005900B481038026842F0010263
:100DD0000260006800F00100059002200090CDE95B
:100DE00001010120CDE9031069460348FFF732FBFA
:100DF00006B010BD403802400000024070B5044605
:100E000090F83C000025012817D0012684F83C60AA
:100E1000022084F83D002068826822F0770222F4E4
:100E20007F4282600868502838D00DDC20284FD0DF
:100E300005DC90B3102811D14AE0022070BD3028A3
:100E400046D040280AD13BE060282FD070280DD032
:100E5000B0F5805F03D0B0F5005F12D0012584F8B3
:100E60003D60002084F83C00284670BDCB68D1E985
:100E70000121206800F0E5FA2068816841F07701DF
:100E800009E0CB68D1E90121206800F0DAFA206896
:100E9000816841F480418160E1E719E0CA684968EE
:100EA000206800F083FB5021206806E0CA6849688A
:100EB000206800F08CFB6021206800F0CCFACEE7BF
:100EC000CA684968206800F071FB40212068F4E797
:100ED000226801461046F0E710B586B0044614219A
:100EE0006846FFF73EFA2068B0F1804F15D10C48F4
:100EF0000021026842F001020260006800F0010077
:100F00000590202000900220CDE901010120CDE9CB
:100F1000031069460348FFF79DFA06B010BD0000B4
:100F2000303802400000024070B5044690F83C00A2
:100F300000260D4601280FD0012084F83C006AB13C
:100F4000042A1DD0082A2FD00C2A3FD001260020C9
:100F500084F83C00304670BD022070BD206800F06F
:100F600083FA2068816941F0080181612068816904
:100F700021F004018161206881692A69114311E02F
:100F8000206800F099FA2068816941F4006181616C
:100F90002068816921F480618161206881692A6902
:100FA00041EA02218161D2E7206800F0B1FA2068AD
:100FB000C16941F00801C1612068C16921F00401E3
:100FC000C1612068C1692A69114311E0206800F0FD
:100FD000CBFA2068C16941F40061C1612068C16930
:100FE00021F48061C1612068C1692A6941EA022156
:100FF000C161ACE710B5040003D094F83D0010B116
:1010000007E0012010BD002084F83C00204600F0DD
:101010001EF8022084F83D00211D206800F0B8F978
:10102000012084F8460084F83E0084F83F0084F8EC
:10103000400084F8410084F8420084F8430084F8BA
:10104000440084F8450084F83D00002010BD70473E
:1010500010B50446022249B104290ED0082913D044
:1010600094F84100012816D0012010BD94F83E00EC
:101070000128F9D184F83E200FE094F83F000128C0
:10108000F2D184F83F2008E094F840000128EBD129
:1010900084F8402001E084F841200122206800F01B
:1010A000C3F912492068884203D1426C42F40042DD
:1010B0004264206888420ED0B0F1804F0BD00C49BA
:1010C000884208D00B49884205D00B49884202D09B
:1010D0000A49884204D1816801F00701062903D03A
:1010E000016841F001010160002010BD00000140D5
:1010F0000004004000080040000C00400040014097
:1011000070B5040004D094F83D00002510B106E04D
:10111000012070BD84F83C50204600F023F82420C4
:1011200084F83D002068C16821F40051C160204668
:1011300000F060FA2068016921F4904101612068A3
:10114000416921F02A0141612068C16841F40051E0
:10115000C1602564202084F83D0084F83E00002012
:1011600070BD000010B586B0044614216846FFF734
:10117000F8F81349206888421FD1124800210268FC
:1011800042F400320260006800F4003005900D481F
:101190001038026842F001020260006800F00100AD
:1011A00005900C2000900220CDE901010720CDE937
:1011B000031069460448FFF74DF906B010BD000062
:1011C000004400404038024000000240FEE70000BA
:1011D00000B587B014216846FFF7C3F8174800210F
:1011E000026842F004020260026802F00402059202
:1011F000026842F080020260026802F080020592FA
:10120000026842F001020260026802F001020592E7
:10121000026842F002020260006800F002000590DD
:101220004FF4005000904FF40410CDE901016946DD
:101230000348FFF70FF907B000BD00003038024047
:101240000008024010B58EB0002407940894099459
:101250000A940B941C2168460C94FFF782F81F48EF
:101260004FF08041016040F24731C0E901144FF472
:101270007A71C0E9031480218161FFF761FD08B133
:1012800072B6FEE74FF48050079007A91348FFF7A6
:10129000B5FD08B172B6FEE71048FFF7ABFE08B126
:1012A00072B6FEE70B940BA90C480C94FFF70AFDED
:1012B00008B172B6FEE76020CDE900040294002276
:1012C000694606480494FFF72FFE08B172B6FEE7A0
:1012D0000248FFF701FE0EB010BD00001000002014
:1012E000FEE7FEE770477047FFF7AAB930B593B045
:1012F00030216846FFF735F814210CA8FFF731F8C4
:101300001D480024016841F080510160006800F030
:10131000805011901948016821F4404141F4004186
:1013200001600068022500F4404011900120039004
:1013300010200490009506950820CDE90740542020
:10134000CDE9090507200B906846FFF7F1FA08B1CF
:1013500072B6FEE70F20CDE90C054FF48050CDE9C1
:101360000E4002210CA81094FFF7F8F9002801D0D4
:1013700072B6FEE713B030BD403802400070004046
:101380000248016841F470010160704788ED00E097
:10139000F0B502681D4B1E4C9F031E4D1E4E984219
:1013A00007D0B84205D0A04203D0A84201D0B04235
:1013B00004D122F0700C4A6842EA0C02984210D024
:1013C000B8420ED0A0420CD0A8420AD0B04208D0F9
:1013D000124CA04205D0124CA04202D0114CA042A7
:1013E00003D122F44074CA6822434C6922F080027F
:1013F000224302608A68C2620A688262984201D10E
:101400000969016301214161F0BD00000000014054
:101410000004004000080040000C00400040014073
:10142000004401400048014010B501F01F030121B4
:10143000046A99408C430462016A9A401143016234
:1014400010BD10B5846842EA032224F47F440A43A5
:101450002243826010BD826822F070020A4342F08B
:10146000070181607047000030B5026A22F0010276
:101470000262026A4368846924F073050C682C4395
:1014800022F002058A682A430A4DA8420BD122F0B5
:101490000805CA6823F440732A434D6922F0040208
:1014A0001D438B692B434360846149684163026239
:1014B00030BD00000000014030B5026A22F0100289
:1014C0000262026A436884690D6824F4E64444EACF
:1014D00005248D6822F0200242EA05120B4DA84235
:1014E0000ED1CD6822F0800242EA05124D6923F444
:1014F000406343EA85038D6922F0400243EA850395
:101500004360846149688163026230BD000001402C
:1015100030B5026A22F480720262036A4268C469CA
:1015200023F4007324F073050C682C438D6843EAA0
:1015300005230C4DA8420ED1CD6823F4006343EA85
:1015400005234D6922F4405242EA05128D6923F4C5
:10155000806342EA05124260C4614968C163036264
:1015600030BD00000000014030B5026A22F4805214
:101570000262046A4268C3690D6823F4E64343EAE1
:1015800005238D6824F4005444EA0534064DA8422E
:1015900004D14D6922F4804242EA85124260C3615F
:1015A00049680164046230BD0000014010B5036A5F
:1015B000046A24F001040462846924F0F00444EA1B
:1015C000021423F00A020A438461026210BD10B5BE
:1015D000036A23F0100303628369046A23F47043EF
:1015E00043EA023224F0A00343EA0111826101625E
:1015F00010BD000070B5044600680169E26821F47E
:101600004051114301612169A068E26908436169A1
:10161000114308432168CA6849F20C639A430243A4
:10162000CA6020684169A26921F440711143416197
:1016300031492068884202D03049884202D1FFF700
:1016400037F901E0FFF724F9E26900231921642545
:101650003226B2F5004F626828D0A0FB0101930F3B
:101660009200FEF707FE0146B0FBF5F06FF018029E
:10167000504301EB800006EB0010B0FBF5F000F0EA
:10168000F002B1FBF5F002EB0012B1FBF5F06FF0E8
:101690001803584301EB800006EB0010B0FBF5F097
:1016A00000F00F0021681044886070BDA0FB0101AC
:1016B00092185B41FEF7DEFD0146B0FBF5F002013A
:1016C000B1FBF5F06FF01803584301EB800006EB17
:1016D000C000B0FBF5F000F0F80002EB4002B1FBF7
:1016E000F5F0584301EB800006EBC000B0FBF5F0CD
:1016F00000F00700D6E70000001001400014014090
:10170000FEE70907090E002804DB00F1E02080F85D
:101710000014704700F00F0000F1E02080F8141D65
:1017200070470000FEF794FFFFF7E0FDFFF750FD64
:10173000194818490C2201604FF4E1314160002141
:101740008160C160C0E904128161C161FFF7D8FC0A
:1017500008B172B6FEE7FFF775FD0F480021483863
:10176000FFF776FC0C4D4FF47A77483D0026286849
:1017700046630120FEF75CFE761CBE42F7DB3C466A
:10178000286844630120FEF753FE641E002CF7DC3A
:10179000ECE7000000440040580000204FF040708B
:1017A000E1EE100A70470000000000000000010296
:1017B00003040607080900000000010203040000FA
:1017C000E01700080000002010000000D001000811
:1017D000F017000810000020F0060000EC010008DF
:1017E0000100000010000000000000000024F400D0
:040000050800019559
:00000001FF
